:020000040800F2
:10000000B8050020450100089F2500089725000835
:100010009B25000839080008392800080000000066
:10002000000000000000000000000000CD250008D6
:100030003D08000800000000A1250008CF250008A9
:100040005F0100085F0100085F0100085F01000810
:100050005F0100085F010008410800085F01000817
:100060005F01000855080008690800085F010008E2
:100070005F0100085F0100085F0100085F010008E0
:100080005F0100085F0100085F0100085F010008D0
:100090005F0100085F0100085F0100085F010008C0
:1000A0005F0100085F0100085F0100085F010008B0
:1000B0005F0100085F0100085F0100085F010008A0
:1000C0005F0100085F0100085F0100085F01000890
:1000D0005F010008292800085F0100085F0100088F
:1000E0005F0100085F0100085F0100085F01000870
:1000F0005F0100085F0100085F0100085F01000860
:100100005F0100085F0100085F0100085F0100084F
:100110005F0100085F0100085F0100085F0100083F
:100120005F0100085F0100085F0100085F0100082F
:10013000DFF80CD000F002FB0048004729690008F6
:10014000B80500200648804706480047FEE7FEE75E
:10015000FEE7FEE7FEE7FEE7FEE7FEE7FEE7FEE777
:10016000D725000831010008D2B201E000F8012BC8
:10017000491EFBD270470022F6E710B513460A4627
:1001800004461946FFF7F0FF204610BD2DE9FE4F4B
:10019000804681EA0300C00F0C46009021F0004128
:1001A00023F00045B8EB0200A94105D240462146A4
:1001B00090461C460B46024623F00040104347D0B1
:1001C000270DC7F30A00C3F30A510290401A0190A9
:1001D00040286BDAC3F3130040F4801B009892466A
:1001E00020B10023D2EB030A63EB0B0B01985946B5
:1001F000C0F14002504600F0DCF906460D4650467C
:100200005946019A00F0F4F910EB0800614100240E
:1002100087EA115284EAE7731A4340D0009A62B326
:10022000019A012A4FEA075215DC001B61EB02011B
:100230004FF0004202EA0752CDE90042001C41F5AE
:10024000801132462B4600F02BFA03B0BDE8F08F48
:1002500040462146F9E7001B61EB0201001C41F515
:10026000801300185B412018A2F5001747EB03012B
:1002700040EAD570B6196D4111E06D084FEA3606B7
:1002800045EAC0754FEA0752001B61EB0201001CF2
:1002900041F5801149084FEA3000001951413246BA
:1002A0002B4603B0BDE8F04F00F0EBB900980122F7
:1002B00040000023D0EB020263EBE073009821467C
:1002C0004FEAE074B8EB000061EB0401E9E783F06A
:1002D00000435BE781F0004158E72DE9FE4F81EADA
:1002E000030404F0004421F0004100944FF0000B9F
:1002F00023F0004350EA01045ED052EA03045BD0CD
:10030000C3F30A54C1F30A552C44A4F2F334019404
:10031000A0FB0254C1F3130141F48011C3F3130392
:1003200043F4801301FB024400FB034E840A970A46
:1003300044EA815447EA8357A4FB076802958D0A73
:1003400005FB07854FEA932C04FB0C542705029DFF
:100350004FEA065847EA1637B5EB08056EEB070C6F
:10036000870E920E47EA811742EA8312A7FB020129
:10037000B6EB0B0164EB00042B0D43EA0C335E1863
:1003800044EB1C50DA465146E7FB0201C5F3130467
:100390004FEA0B3343EA14534FEA0432019C43EA19
:1003A0000603A4F10C040294009CCDE900B400F013
:1003B00077F903B0BDE8F08F00200146F9E72DE999
:1003C000F04D81EA030404F0004B21F0004514468F
:1003D0004FF0000A23F0004150EA050220D054EA11
:1003E00001021DD0C5F30A570246C5F31303C1F33A
:1003F0001300C1F30A5640F4801543F48013A7EBB1
:100400000608101BD64608F2FD3873EB050002D330
:1004100008F1010801E092185B41B8F1000F03DA1E
:1004200000200146BDE8F08D00204FF48011064603
:1004300084460EE0171B73EB050705D3121B63EB15
:10044000050306434CEA010C49084FEA30009218B4
:100450005B4150EA0107EDD152EA030012D082EA73
:10046000040083EA0501084305D0101BAB4106D206
:100470000122002306E000224FF0004302E06FF06B
:10048000010253101AEB06004CEB085110EB0A0066
:1004900041EB0B01BDE8F04D00F0F3B896230022CC
:1004A000114600F0C0B80EB540F233410291002170
:1004B000CDE900110A460B4600F0F2F803B000BD8A
:1004C000C1F30A5210B5C1F3130140F2FF3341F4F6
:1004D00080119A4201DA002010BD40F233439A4263
:1004E000A2F2334203DC524200F072F810BD904099
:1004F00010BD00F0004230F000400AD0C10D01F5FF
:100500006071C0F3160042EA0151C208400711436E
:10051000704700200146704701F0004330B421F0DD
:10052000004150EA010206D00A0DA2F56072C1F343
:100530001301002A02DC30BC00207047440F44EA5B
:10054000C104C100E01830BC00EBC25000F062B83A
:100550002DE9F05F0546002092469B4688460646F8
:10056000814640241BE0284641464746224600F08B
:100570002FF853465A46C01A914110D311461846D7
:10058000224600F016F82D1A67EB01084F46224666
:100590000120002100F00DF817EB00094E41201E4C
:1005A000A4F10104DFDC484631462A464346BDE853
:1005B000F09F202A04DB203A00FA02F10020704765
:1005C0009140C2F1200320FA03F319439040704791
:1005D000202A04DB203A21FA02F00021704721FA98
:1005E00002F3D040C2F120029140084319467047FF
:1005F000202A06DBCB17203A41FA02F043EAE073E7
:1006000006E041FA02F3D040C2F1200291400843D3
:10061000194670470029A8BF7047401C490008BF11
:1006200020F00100704710B4B0FA80FC00FA0CF022
:1006300050EA010404BF10BC704749B1CCF120045A
:1006400021FA04F411FA0CF118BF012121430843E7
:10065000A3EB0C01CB1D4FEA00614FEA102042BF13
:10066000002010BC704700EBC35010440029A4BF09
:1006700010BC7047401C490008BF20F0010010BCAE
:10068000704710B5141E73F1000408DA401C41F1E4
:10069000000192185B411A4301D120F0010010BD06
:1006A0002DE9F04D92469B4611B1B1FA81F202E07C
:1006B000B0FA80F220329046FFF77BFF04460F46E7
:1006C00040EA0A0041EA0B0153465A46084313D058
:1006D000114653EA010019D0C8F140025046FFF715
:1006E00077FF05460E46504659464246FFF761FFE2
:1006F000084305D0012004E020463946BDE8F08DCE
:100700000020054346EAE0762C4337430A98630508
:10071000E40AA0EB08000022FD0A44EA47540A302C
:1007200002D500200146E9E7010510196941DDE91C
:10073000084500196941BDE8F04DA2E7064C074D98
:1007400006E0E06840F0010394E8070098471034A1
:10075000AC42F6D3FFF7F0FC78A1000898A100089E
:1007600070B5044600252068806800F00100F0B1F3
:100770002068806820F001002168886000F064FF34
:1007800005460EE000F060FF401B022809D9A06A70
:1007900040F01000A062E06A40F00100E062012039
:1007A00070BD2068806800F001000028EAD10020B8
:1007B000F6E7000038B504460025002000902068C8
:1007C000806800F0010080BB2068806840F0010074
:1007D00021688860164800681649B0FBF1F0009067
:1007E00002E00098401E009000980028F9D100F027
:1007F0002BFF054613E000F027FF401B02280ED90F
:10080000A06A40F01000A062E06A40F00100E062DF
:1008100000BF002084F8240000BF012038BD2068FC
:10082000806800F001000028E5D00020F6E7000015
:100830000000002040420F0000BFFEE770470000AC
:1008400010B5012000F03AFD01200149086010BDFB
:100850001404014010B5082000F030FD08200149C3
:10086000086010BD1404014010B5102000F026FDF2
:1008700010200149086010BD1404014070B5044601
:10088000B3F5804F13D1D1E9000540EA05108D681A
:1008900040EA05208D6928438D8940EA054054F8D7
:1008A0002250064E3540284344F8220003E06FF002
:1008B000704044F82200002070BD00000000F0CF1E
:1008C00070B50246086852F8200020F001000E685A
:1008D00042F826008868082801D1402300E0002360
:1008E000486818438E683043CE6830430E69304301
:1008F0004E693043CE6930430E6A30434E6A30430E
:100900008E6A3043CE6A30430E6B40EA0604886933
:100910000443486B0443074D45F4806545F4E025E6
:10092000086852F82000A84320430E6842F82600C9
:10093000002070BD7FFB080010B50346D1E900041C
:1009400040EA04108C6840EA04208C8940EA0444A0
:10095000088A401E44EA0054087D801E44EA006074
:100960008C692043541C53F8244004F04044204335
:10097000541C43F82400002010BD00000146002252
:1009800000200AE0084B33F820308B4204D2064B9B
:1009900003EB80035A8803E0401CB0F58C7FF1DD47
:1009A00000BF104670470000149D0008F8B50446CB
:1009B00000260020009000BF94F82400012801D1F7
:1009C0000220F8BD012084F8240000BF2046FFF774
:1009D000C7FE0646002E62D1A06A20F4885040F07F
:1009E0000200A062022000F0DFFE30490968B1FB7E
:1009F000F0F04000009002E00098401E0090009847
:100A00000028F9D12046FFF7D5FE2068806840F025
:100A100008002168886000F017FE054611E000F02C
:100A200013FE401B0A280CD9A06A20F0020040F0F7
:100A30001000A06200BF002084F8240000BF012045
:100A4000BFE72068806800F008000028E7D1206830
:100A5000806840F004002168886000F0F5FD0546DC
:100A600011E000F0F1FD401B0A280CD9A06A20F02B
:100A7000020040F01000A06200BF002084F82400B3
:100A800000BF01209DE72068806800F00400002876
:100A9000E7D1A06A20F0020040F00100A06200BF90
:100AA000002084F8240000BF30468AE700000020C0
:100AB00038B5024600230020009000BF92F82400C1
:100AC000012801D1022038BD012082F8240000BF96
:100AD0004868072812D21068406B0C79641E04EB3A
:100AE00084051F24AC40A0430D796D1E05EB8505E0
:100AF0000C68AC4020431468606327E048680D2808
:100B000012D21068006B0C79E41F04EB84051F24DB
:100B1000AC40A0430D79ED1F05EB85050C68AC409A
:100B200020431468206311E01068C06A0C790D3C02
:100B300004EB84051F24AC40A0430D790D3D05EB6B
:100B400085050C68AC4020431468E06208680A28F8
:100B500012D31068C0680C780A3C04EB44050724E3
:100B6000AC40A0430D780A3D05EB45058C68AC40D0
:100B700020431468E0600FE0106800690C7804EB13
:100B800044050724AC40A0430D7805EB45058C686F
:100B9000AC402043146820610868102802D008681F
:100BA000112827D1174C1068A0421ED11068806808
:100BB00000F40000F0B91068806840F40000146888
:100BC000A0600868102815D10F4800680F4CB0FBD2
:100BD000F4F000EB80004000009002E00098401E1E
:100BE000009000980028F9D104E0906A40F02000BD
:100BF0009062012300BF002082F8240000BF184645
:100C000061E70000002401400000002040420F0086
:100C100001460868C06C70472DE9F0410446002782
:100C200000250026A84614B90120BDE8F081A0687F
:100C300010B1207D00B100BFA06A30B90020E06291
:100C400084F82400204600F097F82046FFF788FD3E
:100C50000746A06A00F01000002873D1002F7ED153
:100C6000A06A20F4885040F00200A0623F4AD4E914
:100C70000001904208D1E069B0F5402F02D14FF455
:100C8000002002E0E06900E0E0690143207B41EAE6
:100C900040000643A068B0F5807F02D0A06801281C
:100CA00002D14FF4807000E000200543207D012830
:100CB00011D1207B38B9A069401E4FF4006141EA90
:100CC0004030054307E0A06A40F02000A062E06ADF
:100CD00040F00100E0622068406820F46940284349
:100CE00021684860206880682149084030432168B5
:100CF0008860A068B0F5807F02D0A068012802D18A
:100D00004FF4807000E00020B0F5807F03D1208A8E
:100D1000401E4FEA00582068C06A20F4700040EA84
:100D200008002168C8622068806812490840B04203
:100D300009D10020E062A06A20F0020040F001002A
:100D4000A06211E00BE0A06A20F0020040F0100069
:100D5000A062E06A40F00100E062012704E0A06ABE
:100D600040F01000A062012738465EE7003C0140D9
:100D7000FDF7E1FFFE0E1FFF10B58CB004461C49C5
:100D80002068884232D1182102A8FFF7F4F900BF89
:100D900000BF1848806940F4007016498861084611
:100DA000806900F40070019000BF00BF00BF00BF69
:100DB00000BF0846806940F00400886108468069E9
:100DC00000F00400019000BF00BF00BF02200290AD
:100DD0008003049002A800F081FD02200890032007
:100DE000099008A9044800F077FA00BF0CB010BDC4
:100DF000002401400010024000080140F8B50446FC
:100E00000D46002600200090002700F01DFC06463D
:100E10002068806800F4807050B1A06A40F0200023
:100E2000A06200BF002084F8240000BF0120F8BDAC
:100E30002068406800F48070F8B92068C06A00F447
:100E40007000D0B912E0681C80B125B100F0FCFB45
:100E5000801BA8420AD9A06A40F00400A06200BF2B
:100E6000002084F8240000BF0320E0E72068006829
:100E700000F002000028E6D050E0022000F094FCD0
:100E800036490968B1FBF0F021680969344A11401C
:100E900091B92168C9689211114069B9216809693D
:100EA000304A114031B92168C9689211114009B91D
:100EB000142117E0292115E021680969294A114008
:100EC00021B92168C9689211114041B121680969AD
:100ED000254A114029B92168C968114009B954212E
:100EE00000E0FC2100FB01F715E0681C80B125B192
:100EF00000F0AAFB801BA8420AD9A06A40F00400B7
:100F0000A06200BF002084F8240000BF03208EE709
:100F10000098401C00900098B842E6D36FF0120091
:100F200021680860A06A40F40070A06220688068B0
:100F300000F46020B0F5602F0DD1207B58B9A06A75
:100F400020F48070A062A06A00F4805018B9A06AF2
:100F500040F00100A062002069E7000000000020CE
:100F600024499224922449124992240070B50446DF
:100F7000002500BF94F82400012801D1022070BD93
:100F8000012084F8240000BF2046FFF713FC05462B
:100F9000002D77D1A06A40F20121884340F480708F
:100FA000A0623C492068884208D13B48006800F4B0
:100FB000702008B9012002E0002000E0012078B193
:100FC000A06A20F48010A0622068406800F480606D
:100FD00000B3A06A20F4005040F48050A06219E0F1
:100FE000A06A40F48010A0622B49091F2068884243
:100FF00003D028492068884204D12748006800F4BB
:10100000806000E0002028B1A06A20F4005040F485
:101010008050A062A06A00F4805020B1E06A20F005
:101020000600E06201E00020E06200BF002084F8DA
:10103000240000BFC01E216808602068806800F49A
:101040006020B0F5602F16D112492068884208D17F
:101050001148006800F4702008B9012002E0002067
:1010600000E0012038B12068806840F4A0002168C9
:1010700088600CE006E02068806840F480102168F9
:10108000886004E000BF002084F8240000BF2846E8
:1010900075E70000002801400424014070B50446B3
:1010A000002594F82100022803D00420A063012524
:1010B000C1E02068006820F00E0021680860206808
:1010C000006820F00100216808605C4920688842BF
:1010D00052D95A4978392068884201D1012047E025
:1010E000564964392068884201D1102040E05349B4
:1010F00050392068884201D1801539E04F493C3988
:101100002068884201D1801432E04C492839206897
:10111000884202D14FF480302AE0484914392068CF
:10112000884202D14FF4801022E04449206888426E
:1011300001D140041CE042492068884201D10120CD
:1011400016E03F4914312068884201D110200FE099
:101150003B4928312068884201D1801508E0384990
:101160003C312068884201D1801401E04FF4803086
:101170003349091F086051E03049783920688842B6
:1011800001D1012047E02D4964392068884201D10E
:10119000102040E0294950392068884201D180154B
:1011A00039E026493C392068884201D1801432E078
:1011B000224928392068884202D14FF480302AE041
:1011C0001E4914392068884202D14FF4801022E071
:1011D0001A492068884201D140041CE0184920685F
:1011E000884201D1012016E0154914312068884257
:1011F00001D110200FE0124928312068884201D126
:10120000801508E00E493C312068884201D18014E5
:1012100001E04FF48030094980394860012084F8AA
:10122000210000BF002084F8200000BF606B10B1D7
:101230002046616B8847284670BD00008000024050
:101240000804024010B50446142001F04FFE012CA2
:101250001BD0082C0DD0102C24D11021124800F0E6
:10126000DBF928B91148007880F001000F490870B7
:1012700018E008210C4800F0CFF928B90C48007894
:1012800080F001000A4908700CE00121094800F0D3
:10129000C3F9012805D100BF0102074800F0C4F9D5
:1012A00000BF00BF00BF10BD001801402400002097
:1012B0002500002000080140000C014010B5044644
:1012C00004480068204020B1024804602046FFF72F
:1012D000B9FF10BD140401402DE9F8470246002370
:1012E0009C467BE14FF0010808FA03F4D1F8008036
:1012F00008EA0400A0427DD1DFF8F4A2D1F804800E
:10130000A8EB0A09D0453AD014DCB8F1030F50D04D
:1013100009DCB8F1000F31D0B8F1010F1CD0B8F1E1
:10132000020F49D120E0B8F1110F18D0B8F1120F17
:1013300042D11EE0B9F5881F25D006DCB9F5803F03
:1013400020D0B9F5801F37D11AE0B9F5001F18D0A9
:10135000B9F5041F30D117E0D1F80CC02DE0D1F859
:101360000C8008F1040C28E0D1F80C8008F1080C7E
:1013700023E0D1F80C8008F10C0C1EE000BF00BF88
:1013800000BF00BF00BF00BFD1F80880B8F1000F58
:1013900002D14FF0040C0BE0D1F80880B8F1010F36
:1013A00003D14FF0080C146102E04FF0080C5461B7
:1013B00003E04FF0000C00E000BF00BFFF2801D8A1
:1013C000904601E002F104084646FF2802D84FEAA1
:1013D000830803E0A3F108084FEA88084746D6F8D7
:1013E00000804FF00F0909FA07F928EA09080CFAFA
:1013F00007F900E07AE048EA0908C6F80080D1F869
:10140000048008F08058B8F1805F6FD100BFDFF82A
:10141000E481D8F8188048F00108DFF8D891C9F8BD
:101420001880C846D8F8188008F00108CDF8008068
:1014300000BF00BF4FEAB9384FEA930958F8295066
:101440004FEA83784FEA18794FF00F0808FA09F845
:1014500025EA0805DFF8A081424502D14FF00008D7
:1014600024E0DFF89881424502D14FF001081DE0E9
:10147000DFF88C81424502D14FF0020816E0DFF818
:101480008481424502D14FF003080FE0DFF87881F4
:10149000424502D14FF0040808E0DFF87081424570
:1014A00002D14FF0050801E04FF006084FEA8379BA
:1014B0004FEA197908FA09F848EA0505DFF850817A
:1014C0004FEA930948F82950D1F8048008F480388D
:1014D000B8F5803F0BD1DFF83C81D8F8008048EAAE
:1014E0000008DFF83091C9F800800AE075E0DFF805
:1014F0002481D8F8008028EA0008DFF81891C9F89C
:101500000080D1F8048008F40038B8F5003F0ED10F
:10151000DFF8008108F10408D8F8008048EA0008E4
:10152000DFF8F09009F10409C9F800800DE0DFF858
:10153000E48008F10408D8F8008028EA0008DFF801
:10154000D49009F10409C9F80080D1F8048008F4A6
:101550008018B8F5801F0ED1DFF8B88008F10808B0
:10156000D8F8008048EA0008DFF8A89009F10809D7
:10157000C9F800800DE0DFF89C8008F10808D8F871
:10158000008028EA0008DFF88C9009F10809C9F802
:101590000080D1F8048008F40018B8F5001F0ED1BF
:1015A000DFF8708008F10C08D8F8008048EA0008DD
:1015B000DFF8609009F10C09C9F800800DE0DFF850
:1015C000548008F10C08D8F8008028EA0008DFF8F9
:1015D000449009F10C09C9F800805B1CD1F8008027
:1015E00028FA03F8B8F1000F7FF47CAEBDE8F88765
:1015F000000011100010024000080140000C0140E2
:10160000001001400014014000180140001C01407E
:101610000800014000040140024693680B400BB1F2
:10162000012000E00020704710B5C26821EA0203E3
:1016300002EA010443EA0443036110BD0AB10161F7
:1016400001E00B0403617047014800687047000027
:101650001000002003480068034909780844014944
:1016600008607047100000201800002010B50848DE
:10167000006840F0100006490860052000F080F87E
:101680000F2000F007F800F02BF8002010BD00003C
:101690000020024070B504460E4800784FF47A717D
:1016A000B1FBF0F00C490968B1FBF0F5284600F0F9
:1016B00091FD08B1012070BD102C07D200222146F7
:1016C000501E00F01EF80548046001E00120F2E71A
:1016D0000020F0E718000020000000201400002087
:1016E000704701460846002809DB00F01F0301226D
:1016F0009A4043099B0003F1E023C3F8002100BF97
:1017000070472DE9F05F80460D461646002701F030
:10171000B9F8074639462A46334601F00700C0F1BA
:10172000070ABAF1040F02D94FF0040A01E0C0F130
:10173000070AD14600F1040ABAF1070F02D24FF0AE
:10174000000A01E0A0F1030AD4464FF0010A0AFAA8
:1017500009FAAAF1010A0AEA020A0AFA0CFA4FF097
:10176000010B0BFA0CFBABF1010B0BEA030B4AEA82
:101770000B042146404601F08DF8BDE8F09F0000C3
:1017800000BF00F00702064B19684FF6FF0319402F
:10179000044B0B4343EA0221014B196000BF704721
:1017A0000CED00E00000FA052DE9F04385B0064697
:1017B00042A30FCB01AC0FC444A0006800904FF0CF
:1017C0000008002500270024A146042E36D004DCA2
:1017D000012E3BD0022E6BD15FE0082E32D0102EAE
:1017E00066D13B484468006800F0807000B301A8EF
:1017F000C4F38341475C04F4803070B134484068DE
:10180000C0F340401DF8008004F4803040B13148FE
:10181000B0FBF8F000FB07F502E02F4807FB00F5EE
:101820002B48406800F48000B0F5800F01D1A94634
:1018300003E068000321B0FBF1F93AE000F0D2F9CF
:10184000814636E000F0CEF9814632E02048046A55
:1018500004F44070B0F5807F05D104F0020010B1AF
:101860004FF4004918E004F44070B0F5007F07D150
:101870001748406A00F0020010B149F640490BE0F9
:1018800004F44070B0F5407F06D11148006800F4C0
:10189000003008B14FF224490BE000F093F90C49F5
:1018A0004968C1F38131491C4900B0FBF1F900E0FE
:1018B00000BF00BF484605B0BDE8F0830203040541
:1018C000060708090A0B0C0D0E0F1010010200008C
:1018D0000010024000127A0000093D00F8B50446ED
:1018E00000260025207800F0010000286BD000279A
:1018F0004348C06900F0805070B900BF4048C069DB
:1019000040F080503E49C8610846C06900F08050F0
:10191000009000BF00BF01273A48006800F48070C3
:10192000B0B93848006840F4807036490860FFF765
:101930008BFE064606E0FFF787FE801B642801D970
:101940000320F8BD2F48006800F480700028F2D012
:101950002B48006A00F440752DB3A08800F4407055
:10196000A84220D02648006A20F44075012026496C
:101970000860002008602248056205F0010090B16F
:10198000FFF762FE064608E0FFF75EFE801B41F2AD
:101990008831884201D90320D3E71948006A00F052
:1019A00002000028F0D01648006A20F440706168F8
:1019B000084313490862012F04D10846C06920F08A
:1019C0008050C86100BF207800F00200022807D1D3
:1019D0000B48406820F44040A1680843084948602B
:1019E000207800F01000102807D10548406820F446
:1019F000800061690843024948600020A1E70000B7
:101A000000100240007000404004424270B504469D
:101A10000D460CB9012070BD5A48006800F007005F
:101A2000A8420ED25748006820F0070028435549C5
:101A300008600846006800F00700A84201D00120B5
:101A4000E9E7207800F0020002281DD1207800F09C
:101A50000400042805D14C48406840F4E0604A493D
:101A60004860207800F00800082805D14648406802
:101A700040F46050444948604348406820F0F0001A
:101A8000A168084340494860207800F0010078B31D
:101A90006068012806D13C48006800F4003090B925
:101AA0000120B8E76068022806D13748006800F0D6
:101AB000007040B90120AEE73348006800F0020032
:101AC00008B90120A7E73048406820F003006168AA
:101AD00008432D494860FFF7B7FD064609E0FFF7C8
:101AE000B3FD801B41F28831884202D9032092E77E
:101AF00007E02548406800F00C006168B0EB810FFA
:101B0000EDD12048006800F00700A8420ED91D481A
:101B1000006820F0070028431A490860084600685A
:101B200000F00700A84201D0012074E7207800F0FF
:101B30000400042807D11448406820F4E060E168FC
:101B4000084311494860207800F00800082808D1AF
:101B50000D48406820F46050216940EAC1000A49FC
:101B6000486000F03FF808494968C1F30311074A8B
:101B7000515CC8400649086006480068FFF78AFDC6
:101B8000002048E700200240001002407C6D000861
:101B90000000002014000020014800687047000089
:101BA0000000002000B5FFF7F7FF04494968C1F3C2
:101BB0000221034A515CC84000BD000000100240F1
:101BC0008C6D000800B5FFF7E7FF04494968C1F3D1
:101BD000C221034A515CC84000BD00000010024011
:101BE0008C6D0008F0B585B00FF26C0C9CE8E0102D
:101BF00001A8A0E8E0101CA52D6800950021002296
:101C0000002300240020194D696801F00C05F5B18E
:101C1000042D02D0082D19D101E0154819E001ADBD
:101C2000C1F38346AC5D01F4803555B10F4D6D684D
:101C3000C5F340451DF805200D4D6543B5FBF2F396
:101C400002E00C4D04FB05F3184602E000BF084813
:101C500000BF00BF05B0F0BD020304050607080978
:101C60000A0B0C0D0E0F10100102000000100240B4
:101C700000127A0000093D00F8B504460CB90120B5
:101C8000F8BD207800F00100002878D0F8484068BE
:101C900000F00C0004280CD0F548406800F00C005F
:101CA000082811D1F248406800F48030B0F5803F38
:101CB0000AD1EF48006800F4003000285FD0606867
:101CC00000285CD10120DBE700BF6068B0F5803FF1
:101CD00006D1E748006840F48030E549086028E014
:101CE000606858B9E248006820F48030E049086034
:101CF0000846006820F4802008601AE06068B0F5AB
:101D0000A02F0BD1DA48006840F48020D849086041
:101D10000846006840F4803008600AE0D448006853
:101D200020F48030D24908600846006820F4802002
:101D3000086000BF606888B1FFF786FC054606E0D2
:101D4000FFF782FC401B642801D9032098E7C848AC
:101D5000006800F400300028F2D010E0FFF774FCB7
:101D6000054606E0FFF770FC401B642801D90320FC
:101D700086E7BF48006800F400300028F2D12078E0
:101D800000F00200022857D1B948406800F00C006A
:101D900050B1B748406800F00C00082818D1B4488A
:101DA000406800F4803098B9B148006800F0020043
:101DB00020B12069012801D0012061E7AC4800680A
:101DC00020F0F800616940EAC100A949086033E0E9
:101DD0002069E8B10120A7490860FFF735FC0546F6
:101DE00006E0FFF731FC401B022801D9032047E73A
:101DF0009F48006800F002000028F2D09C4800686C
:101E000020F0F800616940EAC1009949086013E0D8
:101E1000002098490860FFF717FC054606E0FFF729
:101E200013FC401B022801D9032029E790480068D1
:101E300000F002000028F2D1207800F00800082805
:101E40002DD1A069B8B101208B490860FFF7FCFBD8
:101E5000054606E0FFF7F8FB401B022801D90320E6
:101E60000EE78348406A00F002000028F2D001200B
:101E700000F098FB13E000207F490860FFF7E4FBC7
:101E8000054606E0FFF7E0FB401B022801D90320CE
:101E9000F6E67748406A00F002000028F2D1207888
:101EA00000F00400042873D100277148C06900F0D5
:101EB000805070B900BF6E48C06940F080506C49D6
:101EC000C8610846C06900F08050009000BF00BFA4
:101ED00001276A48006800F48070B0B9674800685C
:101EE00040F4807065490860FFF7AEFB054606E0E8
:101EF000FFF7AAFB401B642801D90320C0E65F4816
:101F0000006800F480700028F2D000BFE06801286B
:101F100006D15748006A40F001005549086227E0A1
:101F2000E06858B95248006A20F001005049086240
:101F30000846006A20F00400086219E0E0680528FD
:101F40000BD14B48006A40F004004949086208463A
:101F5000006A40F0010008620AE04548006A20F08B
:101F60000100434908620846006A20F00400086244
:101F700000BFE068A0B1FFF767FB054609E0FFF787
:101F800063FB401B41F28831884202D9032077E687
:101F900022E03748006A00F002000028EFD012E08B
:101FA000FFF752FB054608E0FFF74EFB401B41F2EE
:101FB0008831884201D9032062E62D48006A00F08A
:101FC00002000028F0D1012F05D12948C06920F076
:101FD00080502749C86100BFE069C8B32448406801
:101FE00000F00C00082860D0E069022848D10020E9
:101FF00020490866FFF728FB054606E0FFF724FBAB
:10200000401B022801D903203AE61948006800F075
:1020100000700028F2D1206AB0F5803F07D1144843
:10202000406820F40030A168084311494860D4E9B1
:10203000080108430E49496821F4741108430C490A
:10204000486001200B490866FFF7FEFA054607E0E5
:102050003DE0FFF7F9FA401B022801D903200FE603
:102060000348006800F000700028F2D02FE0000064
:1020700000100240000042428004424200700040D2
:10208000002014490866FFF7DFFA054606E0FFF76F
:10209000DBFA401B022801D90320F1E50E48006855
:1020A00000F000700028F2D111E0E069012800D1B1
:1020B000E6E50948466806F48031206A814204D189
:1020C00006F47011606A814201D00120D8E5002039
:1020D000D6E50000000042420010024070B5044600
:1020E0000E4615461CB1A069B0F5807F01D10120D4
:1020F00070BD94F8410028B9002084F840002046C3
:1021000000F020F804F108012068FEF7D9FB314601
:10211000A2682068FEF710FC2946236BD4E901026F
:10212000FEF7ACFBA168206850F8210040F00100E8
:10213000A268216841F82200012084F841000020B3
:10214000D6E7000010B586B0044600BF1E484069BF
:1021500040F480701C4948610846406900F4807072
:10216000019000BF00BF00BF0846806940F020001A
:1021700088610846806900F02000019000BF00BF20
:1021800000BF0846806940F04000886108468069C9
:1021900000F04000019000BF00BF4CF203700290BD
:1021A00002200390012004900320059002A9074813
:1021B000FFF792F84FF68070029002A90448FFF7EB
:1021C0008BF806B010BD0000001002400014014062
:1021D0000018014070B504462546681EB0F1807FA6
:1021E00001D301200FE0681E4FF0E02148610F216C
:1021F0004FF0FF3000F04EFB00204FF0E0218861EF
:1022000007200861002070BD704700002DE9F047ED
:102210000446206805682068C668206847694FF052
:102220000008C14605F00F08B8F1000F0AD105F00B
:10223000200038B106F0200020B1204600F0F6F969
:10224000BDE8F087B8F1000F71D007F0010018B9B0
:1022500006F4907000286AD005F0010030B106F451
:10226000807018B1E06B40F00100E06305F00400FD
:1022700030B107F0010018B1E06B40F00200E063FC
:1022800005F0020030B107F0010018B1E06B40F03A
:102290000400E06305F0080048B106F0200010B922
:1022A00007F0010018B1E06B40F00800E063E06B5C
:1022B00068B305F0200028B106F0200010B12046D8
:1022C00000F0B4F920684069C0F38019E06B00F0B9
:1022D000080010B9B9F1000F22D0204600F086F9AD
:1022E0002068406900F04000B0B12068406920F0EB
:1022F000400021684861606B50B11848616B4863C9
:10230000606BFEF7CBFE10B1606B416B88470CE051
:102310002046FFF779FF08E02046FFF775FF04E04D
:102320002046FFF771FF0020E06389E7FFE705F033
:10233000800030B106F0800018B1204600F044FA69
:102340007EE705F0400030B106F0400018B12046AD
:1023500000F05CF974E700BF72E70000D9250008BF
:1023600010B504460CB9012010BDA06900B100E011
:1023700000BF94F8390028B9002084F838002046BE
:1023800000F028F8242084F839002068C06820F480
:1023900000502168C860204600F098F92068006964
:1023A00020F49040216808612068406920F02A00EC
:1023B000216848612068C06840F400502168C86006
:1023C0000020E063202084F8390084F83A000020DF
:1023D000CAE7000010B586B0044628492068884244
:1023E0004AD100BF00BF2648806940F0040024495C
:1023F00088610846806900F00400019000BF00BFBA
:1024000000BF00BF00BF0846806940F0040088613B
:102410000846806900F00400019000BF00BF00BFC3
:1024200000BF00BF0846806940F4804088610846CC
:10243000806900F48040019000BF00BF00BF4815D4
:10244000029002200390012004900320059002A92D
:102450000C48FEF741FF4FF480600290002003908B
:1024600002A90848FEF738FF2520FFF73AF90322B2
:1024700011462520FFF745F906B010BD0038014090
:10248000001002400008014010B5034693F83A00DE
:1024900020282FD101B10AB9012010BD00BF93F847
:1024A0003800012801D10220F7E7012083F8380025
:1024B00000BF99629A85DA850020D863222083F8CC
:1024C0003A0000BF002083F8380000BF1868C068D9
:1024D00040F480701C68E0601868406940F00100BA
:1024E0001C6860611868C06840F020001C68E060EB
:1024F0000020D2E70220D0E710B50446204920682A
:1025000088423BD11F48008800F4004088BB1D482A
:10251000008800F4804070B11B4800780A2803D07E
:1025200000201849088024E01648008840F4004044
:10253000144908801DE0144800780D2806D1114880
:10254000008840F480400F49088012E00E4800786F
:102550000C490988C1F30D010C4A50540948008800
:10256000401C0849088008460088C72801DD002073
:102570000880012204490648FFF786FF10BD0000CD
:10258000003801400C0000200E0000202800002030
:10259000F0000020704700BFFEE700BFFEE7704775
:1025A0007047000008B508490968C9084FF47A72F5
:1025B000B1FBF2F14143009100BF00BF00994A1EF8
:1025C00000920029F9D108BD00000020704710B525
:1025D000FFF740F810BD704770B505466C6A0020E3
:1025E000E085E0842046FFF70FFE70BD0168C968F2
:1025F00021F490710268D1600168496921F00101FC
:1026000002685161202180F83A10704710B50446E5
:102610002068C06820F040002168C860202084F84D
:1026200039002046FFF7B6FF002010BD70B5044604
:1026300094F83A00222847D1A068B0F5805F0CD109
:10264000206950B90025A66A20684068C0F30800D8
:102650003080A06A801CA06215E0A56A0026A068F0
:10266000B0F5805F03D0A06828B9206918B9206848
:102670004068287004E02068406800F07F002870FF
:10268000A06A401CA062E08D401E80B2E085C8B9FF
:102690002068C06820F020002168C8602068C068F9
:1026A00020F480702168C8602068406920F0010033
:1026B00021684861202084F83A002046FFF71CFF7B
:1026C000002070BD0020FCE70220FAE770B5044648
:1026D0002168096921F44051E268114322681161BF
:1026E0002269A1681143626941EA02052168C9684B
:1026F00041F20C62914329432268D1602168496903
:1027000021F44071A2691143226851612D4A216868
:10271000914202D1FFF756FA01E0FFF743FA00EBCE
:10272000C00101EB001162689200B1FBF2F100EB15
:10273000C00202EB001263689B00B2FBF3F2642359
:10274000B2FBF3F202EBC20303EB0212A1EB820134
:10275000322202EB01116422B1FBF2F101F0F0012F
:1027600000EBC00202EB001263689B00B2FBF3F2C5
:102770006423B2FBF3F201EB021200EBC00101EBA8
:10278000001163689B00B1FBF3F100EBC00303EBA6
:1027900000136668B600B3FBF6F36426B3FBF6F3EA
:1027A00003EBC30606EB0313A1EB8301322303EB18
:1027B00001116423B1FBF3F101F00F011144226810
:1027C000916070BD00380140014691F83900212820
:1027D00028D18868B0F5805F0BD1086948B90A6ACA
:1027E0001088C0F308000B685860086A801C0862F3
:1027F00005E00B6A581C086218780B685860C88C92
:10280000401E80B2C88458B90868C06820F08000B3
:102810000B68D8600868C06840F040000B68D8605A
:10282000002070470220FCE710B50248FFF7EEFCDD
:1028300010BD0000F000002000BFFEE70FB4054B04
:1028400010B503A9044A029800F048F810BC5DF8DE
:1028500014FB0000492F0008080000200FB4084BAB
:1028600010B504A902AA039800F038F8044602A99A
:10287000002000F064FA204610BC5DF814FB000054
:102880003F2D000802480068C0F302207047000096
:102890000CED00E010B5002804DB0A07130E054A12
:1028A000135406E00A07140E034A00F00F031B1F1F
:1028B000D45410BD00E400E018ED00E002E008C8C8
:1028C000121F08C1002AFAD170477047002001E0AA
:1028D00001C1121F002AFBD1704700002DE9FF4FF4
:1028E0008DB00F460546002606E025280BD0DDE911
:1028F0000F1290476D1C761C28780028F5D111B076
:102900003046BDE8F08F0024A246A1460122EC49E2
:1029100000E0044315F8013F203B02FA03F00842AF
:10292000F7D128782A2810D06FF02F022878A0F14C
:102930003001092914D80AEB8A0102EB410144F065
:10294000020400EB010A6D1CF0E701CF5FEA000A08
:1029500003D544F40054CAF1000A44F002046D1C8B
:1029600028782E2817D115F8010F44F004042A28DE
:102970000ED06FF02F022878A0F1300109290AD873
:1029800009EB890102EB410100EB01096D1CF2E743
:1029900057F8049B6D1C28786C280FD006DC4C2857
:1029A00017D068280DD06A2814D104E0742810D0FC
:1029B0007A280FD10DE044F400140AE044F48014A6
:1029C00001E044F440146978814202D104F5801496
:1029D0006D1C6D1C2A786E2A1FD00CDC632A31D046
:1029E00004DC002A8BD0582A11D1A3E0642A68D0D5
:1029F000692A0CD165E0732A2ED004DC6F2A73D0CB
:102A0000702A04D19BE0752A6FD0782A6ED01046C8
:102A1000DDE90F129047761C50E1C4F30250022802
:102A200006D0032809D0042801CF09D0066045E16B
:102A300001CFF117C0E9006140E101CF06803DE11F
:102A400006703BE117F8040B8DF8000000208DF8AC
:102A50000100EB46012003E057F804BB4FF0FF30C4
:102A600061074FF0000102D40DE008F10101884632
:102A700049450FDA8045F8DB1BF808100029F4D12E
:102A800008E008F1010188468142FADB1BF80810D2
:102A90000029F6D1DDE90F23AAEB08008146214683
:102AA00000F036F9304400EB080604E0DDE90F12CF
:102AB0001BF8010B9047B8F10108F7D221464846B0
:102AC000F7E00A21C4F302534FF0000B0891022BE8
:102AD00004D001CFC117032B09D00AE0FF1D27F056
:102AE0000707F7E8020108E032E01FE020E000B24B
:102AF000C117042B01D140B2C117031E71F10003AD
:102B000007DA4FF0000CD0EB0C006CEB01012D2329
:102B100002E0230504D52B238DF82430012303E0A4
:102B2000E30701D02023F7E7984658E00A2110E098
:102B300010210EE010204FF0000B08900CE0102147
:102B40004FF0000B44F004044FF00809089103E033
:102B500008214FF0000B0891C4F30253022B04D05C
:102B600001CF0021032B06D006E0FF1D27F0070749
:102B7000F7E8020103E080B2042B00D1C0B24FF0AD
:102B8000000823072BD5702A07D0DDF820C08CF071
:102B9000100C5CEA0B0C05D00EE040238DF82430BD
:102BA000012308E050EA010306D030238DF82430D9
:102BB0008DF8252002239846DDF820C08CF0080C03
:102BC0005CEA0B0C0BD150EA010301D1630706D577
:102BD00030238DF824304FF00108A9F10109582A5B
:102BE00004D038A20B9208AA0A920BE03AA2F9E7A5
:102BF0005B46089AFDF7ACFC0B9B9B5C0A9A521E45
:102C00000A92137050EA0102F2D10A98ADEB00006B
:102C100000F1200B600702D524F4803401E04FF06E
:102C20000109D94502DDA9EB0B0000E0002000EB13
:102C30000B0141440890AAEB010AE00306D4DDE948
:102C40000F232146504600F063F806444FF0000978
:102C500008E009A911F80900DDE90F12904709F110
:102C60000109761CC145F4DBE0030CD5DDE90F2337
:102C70002146504600F04CF8064404E0DDE90F120E
:102C800030209047761C0899481E08900029F5DCF2
:102C900008E00A980A990078491C0A91DDE90F12A8
:102CA0009047761CBBF10001ABF1010BF1DC214632
:102CB0005046DDE90F2300F019F806446D1C1BE6B1
:102CC0000928010030313233343536373839616202
:102CD00063646566000000003031323334353637C6
:102CE0003839414243444546000000002DE9F04197
:102CF000044600251E461746880404D405E03946DC
:102D00002020B0476D1C641EF9D52846BDE8F0812F
:102D10002DE9F041044600251E469046C80301D522
:102D2000302700E02027880404D505E041463846D6
:102D3000B0476D1C641EF9D52846BDE8F0810A68CD
:102D4000531C0B6010707047FEB507460C461546C5
:102D50001E4600940195029669463846FDF7A8FE86
:102D6000FEBD000010B50446072301222146074896
:102D7000FFF7EAFF0548FEF7F9F80A210348FEF7D6
:102D80003DF80248FDF744FF80B210BD88010020E5
:102D90002DE9F04107460C460025002608E038469C
:102DA000FFF7E0FF0544052000F0A0F8701CC6B254
:102DB000A642F4DBB5FBF4F0BDE8F08110B50B489A
:102DC0000B490860002048600021094881600173B8
:102DD000012101610021017581614FF46021C16110
:102DE000FDF71AFF0248FDF7E1FD10BD0024014088
:102DF0008801002010B500F0E3F810BD70B505465D
:102E00000C46164606E028466A1C95B200F008F803
:102E100004F8010B301EA6F101018EB2F3D170BD92
:102E200070B50446002600F08BF92112A02202EBB7
:102E30004101C8B200F04EF900F0C8F92546E1178B
:102E400004EB11610912A4EB0121C8B200F042F9B0
:102E500000F0BCF900F074F9A12000F03BF900F09B
:102E6000B5F9002000F008F9064600F08FF9304669
:102E700070BD70B505460C46164606E0217828461A
:102E800000F009F8681C85B2641C301EA6F101012F
:102E90008EB2F3D170BD70B504460E4600F050F905
:102EA0002112A02202EB4101C8B200F013F900F098
:102EB0008DF92546E11704EB11610912A4EB0121FC
:102EC000C8B200F007F900F081F9304600F002F9CD
:102ED00000F07CF900F05AF90A2000F007F870BD04
:102EE00001490860704700000400002010B5044646
:102EF0004FF47A7104FB01F000F002F810BD0000FD
:102F000070B5034600224FF0E02675690D4E366815
:102F100003FB06F44FF0E026B16910E04FF0E02625
:102F2000B06988420BD0884202D20E1A324402E0C5
:102F30002E1A0E4432440146A24200D300E0EDE7CF
:102F400000BF70BD0400002000BF054A126802F0F7
:102F50004002002AF9D0C2B2014B1B1D1A60704713
:102F60000038014010B500BF002280211048FEF754
:102F700065FB00BF00F01EF800BF012240210C4895
:102F8000FEF75CFB00BF00F015F800BF00224021F7
:102F90000748FEF753FB00BF00F00CF800BF01220A
:102FA00080210348FEF74AFB00BF00F003F810BD84
:102FB000000C014010B50220FFF7A2FF10BD000079
:102FC00000B585B000BF00BF1948806940F0080017
:102FD000174988610846806900F00800009000BF2A
:102FE00000BF00BF00BF00BF0846806940F0080076
:102FF00088610846806900F00800009000BF00BFAB
:1030000000BF402001900120029003900320049013
:1030100001A90848FEF760F9802001901120029074
:1030200001A90448FEF758F900F0B0F805B000BD5A
:1030300000100240000C014010B500BF01228021A9
:103040000C48FEF7FBFA00BFFFF7B4FF00BF0122F8
:1030500040210848FEF7F2FA00BFFFF7ABFF00BFC0
:10306000002240210348FEF7E9FA00BFFFF7A2FF64
:1030700010BD0000000C014070B50546002400267C
:103080001CE06006040E00BF012240211048FEF73C
:10309000D5FA00BFFFF78EFF80210D48FEF7BCFA7E
:1030A00008B1601CC4B200BF002240210848FEF7EE
:1030B000C5FA00BFFFF77EFF701CC6B2082EE0DB2A
:1030C00015B9FFF7B9FF01E0FFF74CFF204670BDCF
:1030D000000C014070B50446002524E000BFE00963
:1030E00028B1012280211548FEF7A8FA04E0002249
:1030F00080211248FEF7A2FA00BFFFF75BFF00BF76
:10310000012240210D48FEF799FA00BFFFF752FF58
:1031100000BF002240210948FEF790FA00BF600678
:10312000040E681CC5B2082DD8DB00BF0122802127
:103130000248FEF783FA00BF70BD0000000C01409A
:1031400010B500BF012280210F48FEF777FA00BFBB
:1031500000BF012240210C48FEF770FA00BFFFF7C4
:1031600029FF00BF002280210748FEF767FA00BF51
:10317000FFF720FF00BF002240210348FEF75EFA60
:1031800000BFFFF717FF10BD000C014010B500BFD6
:10319000002280210C48FEF751FA00BFFFF70AFF1A
:1031A00000BF012240210848FEF748FA00BFFFF7A0
:1031B00001FF00BF012280210348FEF73FFA00BF54
:1031C000FFF7F8FE10BD0000000C014070B50024B0
:1031D000002500BF012280211448FEF72FFA00BF0E
:1031E000FFF7E8FE00BF012240211048FEF726FA53
:1031F00000BFFFF7DFFE07E0601CC4B2FA2C03DD5E
:10320000FFF7C4FF012505E080210848FEF704FA16
:103210000028F1D100BF00BF002240210348FEF783
:103220000DFA00BFFFF7C6FE284670BD000C014036
:1032300000B585B000BF00BF2848806940F040005D
:10324000264988610846806900F04000009000BF70
:1032500000BF00BF00BF00BF0846806940F04000CB
:1032600088610846806900F04000009000BF00BF00
:1032700000BF00BF00BF0846806940F004008861BD
:103280000846806900F00400009000BF00BF00BF46
:103290001020019000200290012003900320049050
:1032A00001A90F48FEF718F80820019000200290AD
:1032B000012003900320049001A90948FEF70CF8AF
:1032C000012001900020029002200390032004902E
:1032D00001A90448FEF700F805B000BD0010024047
:1032E000001801400008014070B50446002514B1E3
:1032F0000120224908702148007848B31021204855
:10330000FEF78AF950B108211D48FEF785F928B16A
:1033100001211C48FEF780F9012819D10A20FFF786
:10332000E5FD00201549087010211548FEF774F9D5
:1033300000B9012508211248FEF76EF900B90225EF
:1033400001211048FEF768F9012815D1032513E083
:1033500010210B48FEF760F901280DD1082108481B
:10336000FEF75AF9012807D101210648FEF754F962
:1033700010B9012001490870284670BD26000020C0
:10338000001801400008014070B5044600260948B5
:103390000588408845430021084603F061F803F0A2
:1033A00069FA00BF02E004480480761CAE42FAD3FA
:1033B00070BD0000780100200008006C10B50446C4
:1033C00058488471002C58D1F020564908804FF499
:1033D000A07048800846808845F21051884210D17C
:1033E0004FF430504F4908814FF4285048814FF432
:1033F0002C5088814FF4F07008804FF4487048805A
:103400001AE04848808841F6631188420DD12C208B
:10341000444908812B2048812A2088814FF4F0708C
:1034200008804FF44870488006E02C203D49088110
:103430002A2048812B2088813A48808845F2103123
:10344000884205D03748808847F29671884206D175
:103450004FF4A070334908804FF4F0704880314831
:10346000808849F60601884258D14FF4F0702D4902
:1034700008804FF44870488050E04FF4A07029490C
:103480000880F02048800846808845F21051884224
:1034900010D14FF43050234908814FF4285048810F
:1034A0004FF42C5088814FF4487008804FF4F0702E
:1034B000488020E01B48808841F66311884205D08F
:1034C0001848808849F6060188420DD12C201549FC
:1034D00008812A2048812B2088814FF44870088079
:1034E0004FF4F070488006E02C200E4908812A2015
:1034F00048812B2088810B48808845F21031884212
:1035000005D00848808847F29671884206D14FF46A
:10351000F070044908804FF4A0704880002002F049
:1035200081FE10BD7801002070B505460E46144698
:103530003146284602F094FF03F09CF901490C80C3
:1035400070BD00000008006C10B5CF2003F086F9B4
:10355000002003F077F9C12003F074F9302003F064
:1035600071F9ED2003F07AF9642003F06BF9032080
:1035700003F068F9122003F065F9812003F062F985
:10358000E82003F06BF9852003F05CF9102003F0CC
:1035900059F97A2003F056F9CB2003F05FF939206E
:1035A00003F050F92C2003F04DF9002003F04AF904
:1035B000342003F047F9022003F044F9F72003F028
:1035C0004DF9202003F03EF9EA2003F047F90020EE
:1035D00003F038F9002003F035F9C02003F03EF97C
:1035E0001B2003F02FF9C12003F038F9012003F06C
:1035F00029F9C52003F032F9302003F023F93020F7
:1036000003F020F9C72003F029F9B72003F01AF9D5
:10361000362003F023F9482003F014F93A2003F090
:103620001DF9552003F00EF9B12003F017F9002021
:1036300003F008F91A2003F005F9B62003F00EF99B
:103640000A2003F0FFF8A22003F0FCF8F22003F0B8
:1036500005F9002003F0F6F8262003F0FFF801201A
:1036600003F0F0F8E02003F0F9F80F2003F0EAF897
:103670002A2003F0E7F8282003F0E4F8082003F0FC
:10368000E1F80E2003F0DEF8082003F0DBF8542008
:1036900003F0D8F8A92003F0D5F8432003F0D2F8BE
:1036A0000A2003F0CFF80F2003F0CCF8002003F03D
:1036B000C9F8002003F0C6F8002003F0C3F800208A
:1036C00003F0C0F8E12003F0C9F8002003F0BAF8D5
:1036D000152003F0B7F8172003F0B4F8072003F023
:1036E000B1F8112003F0AEF8062003F0ABF82B2060
:1036F00003F0A8F8562003F0A5F83C2003F0A2F848
:10370000052003F09FF8102003F09CF80F2003F031
:1037100099F83F2003F096F83F2003F093F80F202C
:1037200003F090F82B2003F099F8002003F08AF8BA
:10373000002003F087F8012003F084F83F2003F015
:1037400081F82A2003F08AF8002003F07BF800209B
:1037500003F078F8002003F075F8EF2003F072F81A
:10376000112003F07BF87820FFF7C0FB292003F03D
:1037700075F810BD10B5FF2003F070F8FF2003F0BE
:1037800061F8982003F05EF8062003F05BF8BC2097
:1037900003F064F8012003F055F80F2003F052F80D
:1037A000612003F04FF8FF2003F04CF8012003F0F4
:1037B00049F8012003F046F80B2003F043F81020ED
:1037C00003F040F8372003F03DF8632003F03AF8A7
:1037D000FF2003F037F8FF2003F034F8012003F056
:1037E00031F8012003F02EF8002003F02BF8002020
:1037F00003F028F8FF2003F025F8522003F022F808
:10380000012003F01FF8002003F01CF8402003F013
:1038100019F8BD2003F022F8012003F013F823204B
:1038200003F010F8452003F00DF8672003F00AF8C4
:10383000012003F007F8232003F004F8452003F0EB
:1038400001F8672002F0FEFFBE2003F007F8002019
:1038500002F0F8FF012002F0F5FFAB2002F0F2FFCA
:10386000602002F0EFFF222002F0ECFF222002F0A5
:10387000E9FF222002F0E6FF222002F0E3FF2220EF
:1038800002F0E0FFC72002F0E9FF362002F0DAFF85
:10389000ED2002F0E3FF7F2002F0D4FF0F2002F0C2
:1038A000D1FFC02002F0DAFF0F2002F0CBFF0B2087
:1038B00002F0C8FF0A2002F0C5FFFC2002F0CEFF94
:1038C000082002F0BFFFDF2002F0C8FF002002F056
:1038D000B9FF002002F0B6FF002002F0B3FF002085
:1038E00002F0B0FF002002F0ADFF202002F0AAFF9E
:1038F000F32002F0B3FF742002F0A4FFB42002F022
:10390000ADFF002002F09EFF002002F09BFF002090
:1039100002F098FFF72002F0A1FF822002F092FF50
:10392000B12002F09BFF002002F08CFF132002F078
:1039300089FF132002F086FFF22002F08FFF802023
:1039400002F080FF042002F07DFF402002F07AFFA9
:10395000282002F077FFC12002F080FF172002F03C
:1039600071FF882002F06EFF882002F06BFF20209C
:1039700002F068FFE02002F071FF002002F062FF19
:103980000A2002F05FFF122002F05CFF102002F01C
:1039900059FF0E2002F056FF202002F053FFCC20EA
:1039A00002F050FF072002F04DFF062002F04AFF10
:1039B0000B2002F047FF0E2002F044FF0F2002F020
:1039C00041FF0D2002F03EFF152002F03BFF1020CA
:1039D00002F038FF002002F035FFE12002F03EFF48
:1039E000002002F02FFF0B2002F02CFF132002F02A
:1039F00029FF0D2002F026FF0E2002F023FF1B20DE
:103A000002F020FF712002F01DFF062002F01AFFD5
:103A1000062002F017FF0A2002F014FF0F2002F028
:103A200011FF0E2002F00EFF0F2002F00BFF1520F9
:103A300002F008FF0C2002F005FF002002F002FF58
:103A40002A2002F00BFF002002F0FCFE002002F012
:103A5000F9FE012002F0F6FEDF2002F0F3FE2B203B
:103A600002F0FCFE002002F0EDFE002002F0EAFE73
:103A7000032002F0E7FE1F2002F0E4FE3A2002F0ED
:103A8000EDFE552002F0DEFE362002F0E7FE0020BB
:103A900002F0D8FE112002F0E1FE7820FFF726FAAE
:103AA000292002F0DBFE1420FFF720FA2C2002F080
:103AB000D5FE10BD10B5ED2002F0D0FE012002F0C1
:103AC000C1FEFE2002F0BEFEEE2002F0C7FEDE20A8
:103AD00002F0B8FE212002F0B5FEF12002F0BEFE99
:103AE000012002F0AFFEDF2002F0B8FE102002F04D
:103AF000A9FEC42002F0B2FE8F2002F0A3FEC62071
:103B000002F0ACFE002002F09DFEE22002F09AFEE0
:103B1000E22002F097FEE22002F094FEBF2002F0C5
:103B20009DFEAA2002F08EFEB02002F097FE0D202E
:103B300002F088FE002002F085FE0D2002F082FED9
:103B4000002002F07FFE112002F07CFE002002F037
:103B500079FE192002F076FE002002F073FE21208B
:103B600002F070FE002002F06DFE2D2002F06AFED1
:103B7000002002F067FE3D2002F064FE002002F00B
:103B800061FE5D2002F05EFE002002F05BFE5D2023
:103B900002F058FE002002F055FEB12002F05EFE59
:103BA000802002F04FFE002002F04CFE8B2002F03D
:103BB00049FE002002F046FE962002F043FE00205F
:103BC00002F040FEB22002F049FE002002F03AFE70
:103BD000002002F037FE022002F034FE002002F046
:103BE00031FE032002F02EFE002002F02BFEB32057
:103BF00002F034FE002002F025FE002002F022FE3A
:103C0000002002F01FFE002002F01CFE002002F047
:103C100019FE002002F016FE002002F013FE002024
:103C200002F010FE002002F00DFE002002F00AFE5D
:103C3000002002F007FE002002F004FE002002F047
:103C400001FE002002F0FEFD002002F0FBFD00203E
:103C500002F0F8FD002002F0F5FD002002F0F2FD78
:103C6000002002F0EFFD002002F0ECFD002002F049
:103C7000E9FD002002F0E6FD002002F0E3FD002057
:103C800002F0E0FDB42002F0E9FD8B2002F0DAFD45
:103C9000002002F0D7FD962002F0D4FD002002F0B3
:103CA000D1FDA12002F0CEFD002002F0CBFDB52019
:103CB00002F0D4FD022002F0C5FD002002F0C2FD9A
:103CC000032002F0BFFD002002F0BCFD042002F042
:103CD000B9FD002002F0B6FDB62002F0BFFD0020C5
:103CE00002F0B0FD002002F0ADFDB72002F0B6FDFD
:103CF000002002F0A7FD002002F0A4FD3F2002F00A
:103D0000A1FD002002F09EFD5E2002F09BFD002040
:103D100002F098FD642002F095FD002002F092FD73
:103D20008C2002F08FFD002002F08CFDAC2002F010
:103D300089FD002002F086FDDC2002F083FD0020DA
:103D400002F080FD702002F07DFD002002F07AFD7F
:103D5000902002F077FD002002F074FDEB2002F0CD
:103D600071FD002002F06EFDDC2002F06BFD0020F2
:103D700002F068FDB82002F071FD002002F062FD43
:103D8000002002F05FFD002002F05CFD002002F048
:103D900059FD002002F056FD002002F053FD0020E6
:103DA00002F050FD002002F04DFDBA2002F056FD59
:103DB000242002F047FD002002F044FD002002F024
:103DC00041FD002002F03EFDC12002F047FD202011
:103DD00002F038FD002002F035FD542002F032FDE3
:103DE000002002F02FFDFF2002F02CFD002002F049
:103DF00029FDC22002F032FD0A2002F023FD00203E
:103E000002F020FD042002F01DFD002002F01AFD4A
:103E1000C32002F023FD3C2002F014FD002002F03C
:103E200011FD3A2002F00EFD002002F00BFD3920BA
:103E300002F008FD002002F005FD372002F002FD2F
:103E4000002002F0FFFC3C2002F0FCFC002002F00D
:103E5000F9FC362002F0F6FC002002F0F3FC3220E0
:103E600002F0F0FC002002F0EDFC2F2002F0EAFC52
:103E7000002002F0E7FC2C2002F0E4FC002002F01D
:103E8000E1FC292002F0DEFC002002F0DBFC262011
:103E900002F0D8FC002002F0D5FC242002F0D2FC75
:103EA000002002F0CFFC242002F0CCFC002002F025
:103EB000C9FC232002F0C6FC002002F0C3FC3C2019
:103EC00002F0C0FC002002F0BDFC362002F0BAFC7B
:103ED000002002F0B7FC322002F0B4FC002002F017
:103EE000B1FC2F2002F0AEFC002002F0ABFC2C2035
:103EF00002F0A8FC002002F0A5FC292002F0A2FCA0
:103F0000002002F09FFC262002F09CFC002002F022
:103F100099FC242002F096FC002002F093FC24205F
:103F200002F090FC002002F08DFC232002F08AFCBD
:103F3000002002F087FCC42002F090FC622002F016
:103F400081FC002002F07EFC052002F07BFC0020BA
:103F500002F078FC842002F075FC002002F072FC74
:103F6000F02002F06FFC002002F06CFC182002F040
:103F700069FC002002F066FCA42002F063FC002033
:103F800002F060FC182002F05DFC002002F05AFCF8
:103F9000502002F057FC002002F054FC0C2002F0EC
:103FA00051FC002002F04EFC172002F04BFC0020D8
:103FB00002F048FC952002F045FC002002F042FC93
:103FC000F32002F03FFC002002F03CFCE62002F06F
:103FD00039FC002002F036FCC52002F03FFC322004
:103FE00002F030FC002002F02DFC442002F02AFCFC
:103FF000002002F027FC652002F024FC002002F0E3
:1040000021FC762002F01EFC002002F01BFC882020
:1040100002F018FC002002F015FCC62002F01EFC85
:10402000202002F00FFC002002F00CFC172002F010
:1040300009FC002002F006FC012002F003FC002035
:1040400002F000FCC72002F009FC002002F0FAFB9D
:10405000002002F0F7FB002002F0F4FB002002F049
:10406000F1FBC82002F0FAFB002002F0EBFB00207D
:1040700002F0E8FB002002F0E5FB002002F0E2FB8A
:10408000C92002F0EBFB002002F0DCFB002002F074
:10409000D9FB002002F0D6FB002002F0D3FB002069
:1040A00002F0D0FB002002F0CDFB002002F0CAFBA2
:1040B000002002F0C7FB002002F0C4FB002002F049
:1040C000C1FB002002F0BEFB002002F0BBFB002081
:1040D00002F0B8FB002002F0B5FB002002F0B2FBBA
:1040E000002002F0AFFBE02002F0B8FB162002F047
:1040F000A9FB002002F0A6FB1C2002F0A3FB00207D
:1041000002F0A0FB212002F09DFB002002F09AFBB0
:10411000362002F097FB002002F094FB462002F0CC
:1041200091FB002002F08EFB522002F08BFB00205E
:1041300002F088FB642002F085FB002002F082FB85
:104140007A2002F07FFB002002F07CFB8B2002F043
:1041500079FB002002F076FB992002F073FB00202F
:1041600002F070FBA82002F06DFB002002F06AFB59
:10417000B92002F067FB002002F064FBC42002F0CB
:1041800061FB002002F05EFBCA2002F05BFB002016
:1041900002F058FBD22002F055FB002002F052FB47
:1041A000D92002F04FFB002002F04CFBE02002F08F
:1041B00049FB002002F046FBF32002F043FB002005
:1041C00002F040FBE12002F049FB162002F03AFB2E
:1041D000002002F037FB1C2002F034FB002002F02C
:1041E00031FB222002F02EFB002002F02BFB3620B8
:1041F00002F028FB002002F025FB452002F022FB04
:10420000002002F01FFB522002F01CFB002002F0F5
:1042100019FB642002F016FB002002F013FB7A2049
:1042200002F010FB002002F00DFB8B2002F00AFBD5
:10423000002002F007FB992002F004FB002002F0AE
:1042400001FBA82002F0FEFA002002F0FBFAB920E0
:1042500002F0F8FA002002F0F5FAC42002F0F2FAB7
:10426000002002F0EFFACA2002F0ECFA002002F07F
:10427000E9FAD22002F0E6FA002002F0E3FAD820B0
:1042800002F0E0FA002002F0DDFAE02002F0DAFAB3
:10429000002002F0D7FAF32002F0D4FA002002F056
:1042A000D1FAE22002F0DAFA052002F0CBFA00207F
:1042B00002F0C8FA0B2002F0C5FA002002F0C2FAA0
:1042C0001B2002F0BFFA002002F0BCFA342002F0FA
:1042D000B9FA002002F0B6FA442002F0B3FA002046
:1042E00002F0B0FA4F2002F0ADFA002002F0AAFA74
:1042F000612002F0A7FA002002F0A4FA792002F06F
:10430000A1FA002002F09EFA882002F09BFA002019
:1043100002F098FA972002F095FA002002F092FA43
:10432000A62002F08FFA002002F08CFAB72002F0EB
:1043300089FA002002F086FAC22002F083FA0020F7
:1043400002F080FAC72002F07DFA002002F07AFA2B
:10435000D12002F077FA002002F074FAD62002F0A1
:1043600071FA002002F06EFADD2002F06BFA0020F4
:1043700002F068FAF32002F065FA002002F062FA17
:10438000E32002F06BFA052002F05CFA002002F054
:1043900059FA0A2002F056FA002002F053FA1C20C3
:1043A00002F050FA002002F04DFA332002F04AFAEF
:1043B000002002F047FA442002F044FA002002F004
:1043C00041FA502002F03EFA002002F03BFA62204F
:1043D00002F038FA002002F035FA782002F032FAC2
:1043E000002002F02FFA882002F02CFA002002F0C0
:1043F00029FA972002F026FA002002F023FAA620DC
:1044000002F020FA002002F01DFAB72002F01AFA9A
:10441000002002F017FAC22002F014FA002002F085
:1044200011FAC72002F00EFA002002F00BFAD12098
:1044300002F008FA002002F005FAD52002F002FA94
:10444000002002F0FFF9DD2002F0FCF9002002F06C
:10445000F9F9F32002F0F6F9002002F0F3F9E42074
:1044600002F0FCF9012002F0EDF9002002F0EAF977
:10447000012002F0E7F9002002F0E4F9022002F046
:10448000E1F9002002F0DEF92A2002F0DBF9002039
:1044900002F0D8F93C2002F0D5F9002002F0D2F960
:1044A0004B2002F0CFF9002002F0CCF95D2002F0A1
:1044B000C9F9002002F0C6F9742002F0C3F9002007
:1044C00002F0C0F9842002F0BDF9002002F0BAF930
:1044D000932002F0B7F9002002F0B4F9A22002F014
:1044E000B1F9002002F0AEF9B32002F0ABF90020E0
:1044F00002F0A8F9BE2002F0A5F9002002F0A2F90E
:10450000C42002F09FF9002002F09CF9CD2002F0B7
:1045100099F9002002F096F9D32002F093F90020D7
:1045200002F090F9DD2002F08DF9002002F08AF906
:10453000F32002F087F9002002F084F9E52002F070
:104540008DF9002002F07EF9002002F07BF90020B6
:1045500002F078F9002002F075F9022002F072F9F9
:10456000002002F06FF9292002F06CF9002002F01F
:1045700069F93C2002F066F9002002F063F94B2053
:1045800002F060F9002002F05DF95D2002F05AF9B6
:10459000002002F057F9742002F054F9002002F0D4
:1045A00051F9842002F04EF9002002F04BF99320DB
:1045B00002F048F9002002F045F9A22002F042F989
:1045C000002002F03FF9B32002F03CF9002002F095
:1045D00039F9BE2002F036F9002002F033F9C42088
:1045E00002F030F9002002F02DF9CD2002F02AF976
:1045F000002002F027F9D32002F024F9002002F075
:1046000021F9DC2002F01EF9002002F01BF9F32052
:1046100002F018F9002002F015F9E62002F01EF968
:10462000112002F00FF9002002F00CF9342002F002
:1046300009F9002002F006F9562002F003F90020E3
:1046400002F000F9762002F0FDF8002002F0FAF8FE
:10465000772002F0F7F8002002F0F4F8662002F06C
:10466000F1F8002002F0EEF8882002F0EBF80020CC
:1046700002F0E8F8992002F0E5F8002002F0E2F8F4
:10468000BB2002F0DFF8002002F0DCF8992002F0F5
:10469000D9F8002002F0D6F8662002F0D3F8002006
:1046A00002F0D0F8552002F0CDF8002002F0CAF850
:1046B000552002F0C7F8002002F0C4F8452002F0AF
:1046C000C1F8002002F0BEF8432002F0BBF8002041
:1046D00002F0B8F8442002F0B5F8002002F0B2F879
:1046E000E72002F0BBF8322002F0ACF8002002F024
:1046F000A9F8552002F0A6F8002002F0A3F87620D1
:1047000002F0A0F8002002F09DF8662002F09AF86E
:10471000002002F097F8672002F094F8002002F0E1
:1047200091F8672002F08EF8002002F08BF88720C5
:1047300002F088F8002002F085F8992002F082F853
:10474000002002F07FF8BB2002F07CF8002002F08D
:1047500079F8992002F076F8002002F073F87720BB
:1047600002F070F8002002F06DF8442002F06AF8C0
:10477000002002F067F8562002F064F8002002F0F2
:1047800061F8232002F05EF8002002F05BF833208D
:1047900002F058F8002002F055F8452002F052F8D7
:1047A000002002F04FF8E82002F058F8002002F054
:1047B00049F8002002F046F8992002F043F8002062
:1047C00002F040F8872002F03DF8002002F03AF8AD
:1047D000882002F037F8002002F034F8772002F049
:1047E00031F8002002F02EF8662002F02BF80020AD
:1047F00002F028F8882002F025F8002002F022F8C4
:10480000AA2002F01FF8002002F01CF8BB2002F0E2
:1048100019F8002002F016F8992002F013F8002091
:1048200002F010F8662002F00DF8002002F00AF8FD
:10483000552002F007F8002002F004F8552002F09D
:1048400001F8002001F0FEFF442001F0FBFF0020F2
:1048500001F0F8FF442001F0F5FF002001F0F2FF25
:10486000552001F0EFFF002001F0ECFFE92001F0FE
:10487000F5FFAA2001F0E6FF002001F0E3FF002091
:1048800001F0E0FF002001F0DDFF002001F0E6FF75
:10489000AA2001F0D7FFCF2001F0E0FF002001F0B7
:1048A000D1FF002001F0CEFF002001F0CBFF00205F
:1048B00001F0C8FF002001F0C5FF002001F0C2FF99
:1048C000002001F0BFFF002001F0BCFF002001F03C
:1048D000B9FF002001F0B6FF002001F0B3FF002077
:1048E00001F0B0FF002001F0ADFF002001F0AAFFB1
:1048F000002001F0A7FF002001F0A4FF002001F03C
:10490000A1FFF02001F0AAFF002001F09BFF502042
:1049100001F098FF002001F095FF002001F092FFC8
:10492000002001F08FFFF32001F098FF002001F03C
:1049300089FFF92001F092FF062001F083FF10208B
:1049400001F080FF292001F07DFF002001F07AFFB7
:104950003A2001F083FF552001F074FF112001F08F
:104960007DFF6420FEF7C2FA292001F077FF352091
:1049700001F074FF002001F065FF512001F06EFF8F
:10498000FF2001F05FFF532001F068FF2C2001F0B1
:1049900059FF552001F062FF822001F053FF2C20C7
:1049A00001F05CFF10BD10B555214FF4704001F0CF
:1049B0006BFFAA214FF2010001F066FF52214FF276
:1049C000020001F061FF08214FF2030001F05CFFDB
:1049D00001214FF2040001F057FF0D214FF4304048
:1049E00001F052FF0D214BF2010001F04DFF0D21AE
:1049F0004BF2020001F048FF34214FF4364001F041
:104A000043FF34214BF2016001F03EFF34214BF2B1
:104A1000026001F039FF0D214FF4314001F034FF05
:104A20000D214BF2011001F02FFF0D214BF202106E
:104A300001F02AFF34214FF4374001F025FF3421E3
:104A40004BF2017001F020FF34214BF2027001F0B3
:104A50001BFF00214FF4324001F016FF00214BF202
:104A6000012001F011FF00214BF2022001F00CFFA8
:104A700024214FF4384001F007FF24214BF60100B8
:104A800001F002FF24214BF6020001F0FDFE01219E
:104A90004FF43F4001F0F8FE0F214FF4334001F096
:104AA000F3FE0F214BF2013001F0EEFE0F214BF22D
:104AB000023001F0E9FE34214FF4394001F0E4FE08
:104AC00034214BF6011001F0DFFE34214BF60210C9
:104AD00001F0DAFE08214FF4354001F0D5FE08213F
:104AE0004BF2015001F0D0FE08214BF2025001F0D0
:104AF000CBFE03214FF4424001F0C6FE24214FF4C7
:104B00003A4001F0C1FE24214BF6012001F0BCFE29
:104B100024214BF6022001F0B7FE00214FF43C4067
:104B200001F0B2FE78214BF6014001F0ADFE00210C
:104B30004BF6024001F0A8FE00214FF43D4001F089
:104B4000A3FE78214BF6015001F09EFE00214BF6AA
:104B5000025001F099FE00214FF43E4001F094FE16
:104B600064214BF6016001F08FFE00214FF45140AB
:104B700001F08AFE33214DF2011001F085FE002183
:104B80004DF2021001F080FE34214DF2031001F0CD
:104B90007BFE00214DF2041001F076FE3A214DF229
:104BA000051001F071FE00214DF2061001F06CFEBF
:104BB0004A214DF2071001F067FE00214DF2081066
:104BC00001F062FE5C214DF2091001F05DFE002152
:104BD0004DF20A1001F058FE81214DF20B1001F048
:104BE00053FE00214DF20C1001F04EFEA6214DF2B5
:104BF0000D1001F049FE00214DF20E1001F044FEAF
:104C0000E5214DF20F1001F03FFE01214DF2101091
:104C100001F03AFE13214DF2111001F035FE012191
:104C20004DF2121001F030FE54214DF2131001F03C
:104C30002BFE01214DF2141001F026FE82214DF2CF
:104C4000151001F021FE01214DF2161001F01CFE9D
:104C5000CA214DF2171001F017FE02214DF2181073
:104C600001F012FE00214DF2191001F00DFE02219B
:104C70004DF21A1001F008FE01214DF21B1001F057
:104C800003FE02214DF21C1001F0FEFD34214DF215
:104C90001D1001F0F9FD02214DF21E1001F0F4FD8E
:104CA00067214DF21F1001F0EFFD02214DF220109F
:104CB00001F0EAFD84214DF2211001F0E5FD022111
:104CC0004DF2221001F0E0FDA4214DF2231001F07D
:104CD000DBFD02214DF2241001F0D6FDB7214DF28B
:104CE000251001F0D1FD02214DF2261001F0CCFD7E
:104CF000CF214DF2271001F0C7FD02214DF22810FF
:104D000001F0C2FDDE214DF2291001F0BDFD0221AE
:104D10004DF22A1001F0B8FDF2214DF22B1001F0F6
:104D2000B3FD02214DF22C1001F0AEFDFE214DF23B
:104D30002D1001F0A9FD03214DF22E1001F0A4FD6C
:104D400010214DF22F1001F09FFD03214DF2301084
:104D500001F09AFD33214DF2311001F095FD032150
:104D60004DF2321001F090FD6D214DF2331001F043
:104D70008BFD00214FF4524001F086FD33214DF2AE
:104D8000012001F081FD00214DF2022001F07CFDA7
:104D900034214DF2032001F077FD00214DF2042073
:104DA00001F072FD3A214DF2052001F06DFD002168
:104DB0004DF2062001F068FD4A214DF2072001F076
:104DC00063FD00214DF2082001F05EFD5C214DF2F3
:104DD000092001F059FD00214DF20A2001F054FD97
:104DE00081214DF20B2001F04FFD00214DF20C20EE
:104DF00001F04AFDA6214DF20D2001F045FD0021F4
:104E00004DF20E2001F040FDE5214DF20F2001F0A2
:104E10003BFD01214DF2102001F036FD13214DF232
:104E2000112001F031FD01214DF2122001F02CFD85
:104E300054214DF2132001F027FD01214DF21420E1
:104E400001F022FD82214DF2152001F01DFD01210E
:104E50004DF2162001F018FDCA214DF2172001F085
:104E600013FD02214DF2182001F00EFD00214DF23C
:104E7000192001F009FD02214DF21A2001F004FD74
:104E800001214DF21B2001F0FFFC02214DF21C20FC
:104E900001F0FAFC34214DF21D2001F0F5FC022155
:104EA0004DF21E2001F0F0FC67214DF21F2001F0B1
:104EB000EBFC02214DF2202001F0E6FC84214DF2B2
:104EC000212001F0E1FC02214DF2222001F0DCFC66
:104ED000A4214DF2232001F0D7FC02214DF2242021
:104EE00001F0D2FCB7214DF2252001F0CDFC0221CA
:104EF0004DF2262001F0C8FCCF214DF2272001F011
:104F0000C3FC02214DF2282001F0BEFCDE214DF24F
:104F1000292001F0B9FC02214DF22A2001F0B4FC55
:104F2000F2214DF22B2001F0AFFC02214DF22C209A
:104F300001F0AAFCFE214DF22D2001F0A5FC032179
:104F40004DF22E2001F0A0FC10214DF22F2001F097
:104F50009BFC03214DF2302001F096FC33214DF2F1
:104F6000312001F091FC03214DF2322001F08CFC44
:104F70006D214DF2332001F087FC00214FF45340A6
:104F800001F082FC33214DF2013001F07DFC002163
:104F90004DF2023001F078FC34214DF2033001F083
:104FA00073FC00214DF2043001F06EFC3A214DF209
:104FB000053001F069FC00214DF2063001F064FC7F
:104FC0004A214DF2073001F05FFC00214DF208301C
:104FD00001F05AFC5C214DF2093001F055FC002132
:104FE0004DF20A3001F050FC81214DF20B3001F0FE
:104FF0004BFC00214DF20C3001F046FCA6214DF295
:105000000D3001F041FC00214DF20E3001F03CFC6E
:10501000E5214DF20F3001F037FC01214DF2103047
:1050200001F032FC13214DF2113001F02DFC012171
:105030004DF2123001F028FC54214DF2133001F0F2
:1050400023FC01214DF2143001F01EFC82214DF2AF
:10505000153001F019FC01214DF2163001F014FC5D
:10506000CA214DF2173001F00FFC02214DF2183029
:1050700001F00AFC00214DF2193001F005FC02217B
:105080004DF21A3001F000FC01214DF21B3001F00D
:10509000FBFB02214DF21C3001F0F6FB34214DF2F6
:1050A0001D3001F0F1FB02214DF21E3001F0ECFB4E
:1050B00067214DF21F3001F0E7FB02214DF2203055
:1050C00001F0E2FB84214DF2213001F0DDFB0221F1
:1050D0004DF2223001F0D8FBA4214DF2233001F033
:1050E000D3FB02214DF2243001F0CEFBB7214DF26B
:1050F000253001F0C9FB02214DF2263001F0C4FB3E
:10510000CF214DF2273001F0BFFB02214DF22830B4
:1051100001F0BAFBDE214DF2293001F0B5FB02218E
:105120004DF22A3001F0B0FBF2214DF22B3001F0AC
:10513000ABFB02214DF22C3001F0A6FBFE214DF21B
:105140002D3001F0A1FB03214DF22E3001F09CFB2C
:1051500010214DF22F3001F097FB03214DF230303A
:1051600001F092FB33214DF2313001F08DFB032130
:105170004DF2323001F088FB6D214DF2333001F0F9
:1051800083FB00214FF4544001F07EFB33214DF2AC
:10519000014001F079FB00214DF2024001F074FB67
:1051A00034214DF2034001F06FFB00214DF2044029
:1051B00001F06AFB3A214DF2054001F065FB002148
:1051C0004DF2064001F060FB4A214DF2074001F02C
:1051D0005BFB00214DF2084001F056FB5C214DF2D3
:1051E000094001F051FB00214DF20A4001F04CFB57
:1051F00081214DF20B4001F047FB00214DF20C40A4
:1052000001F042FBA6214DF20D4001F03DFB0021D3
:105210004DF20E4001F038FBE5214DF20F4001F058
:1052200033FB01214DF2104001F02EFB13214DF212
:10523000114001F029FB01214DF2124001F024FB45
:1052400054214DF2134001F01FFB01214DF2144097
:1052500001F01AFB82214DF2154001F015FB0121EE
:105260004DF2164001F010FBCA214DF2174001F03B
:105270000BFB02214DF2184001F006FB00214DF21C
:10528000194001F001FB02214DF21A4001F0FCFA35
:1052900001214DF21B4001F0F7FA02214DF21C40B2
:1052A00001F0F2FA34214DF21D4001F0EDFA022135
:1052B0004DF21E4001F0E8FA67214DF21F4001F067
:1052C000E3FA02214DF2204001F0DEFA84214DF292
:1052D000214001F0D9FA02214DF2224001F0D4FA26
:1052E000A4214DF2234001F0CFFA02214DF22440D7
:1052F00001F0CAFAB7214DF2254001F0C5FA0221AA
:105300004DF2264001F0C0FACF214DF2274001F0C6
:10531000BBFA02214DF2284001F0B6FADE214DF22F
:10532000294001F0B1FA02214DF22A4001F0ACFA15
:10533000F2214DF22B4001F0A7FA02214DF22C4050
:1053400001F0A2FAFE214DF22D4001F09DFA032159
:105350004DF22E4001F098FA10214DF22F4001F04D
:1053600093FA03214DF2304001F08EFA33214DF2D1
:10537000314001F089FA03214DF2324001F084FA04
:105380006D214DF2334001F07FFA00214FF455407A
:1053900001F07AFA33214DF2015001F075FA002143
:1053A0004DF2025001F070FA34214DF2035001F039
:1053B0006BFA00214DF2045001F066FA3A214DF2E9
:1053C000055001F061FA00214DF2065001F05CFA3F
:1053D0004A214DF2075001F057FA00214DF20850D2
:1053E00001F052FA5C214DF2095001F04DFA002112
:1053F0004DF20A5001F048FA81214DF20B5001F0B4
:1054000043FA00214DF20C5001F03EFAA6214DF274
:105410000D5001F039FA00214DF20E5001F034FA2E
:10542000E5214DF20F5001F02FFA01214DF21050FD
:1054300001F02AFA13214DF2115001F025FA012151
:105440004DF2125001F020FA54214DF2135001F0A8
:105450001BFA01214DF2145001F016FA82214DF28F
:10546000155001F011FA01214DF2165001F00CFA1D
:10547000CA214DF2175001F007FA02214DF21850DF
:1054800001F002FA00214DF2195001F0FDF902215C
:105490004DF21A5001F0F8F901214DF21B5001F0C4
:1054A000F3F902214DF21C5001F0EEF934214DF2D6
:1054B0001D5001F0E9F902214DF21E5001F0E4F90E
:1054C00067214DF21F5001F0DFF902214DF220500B
:1054D00001F0DAF984214DF2215001F0D5F90221D1
:1054E0004DF2225001F0D0F9A4214DF2235001F0E9
:1054F000CBF902214DF2245001F0C6F9B7214DF24B
:10550000255001F0C1F902214DF2265001F0BCF9FD
:10551000CF214DF2275001F0B7F902214DF228506A
:1055200001F0B2F9DE214DF2295001F0ADF902216E
:105530004DF22A5001F0A8F9F2214DF22B5001F062
:10554000A3F902214DF22C5001F09EF9FE214DF2FB
:105550002D5001F099F903214DF22E5001F094F9EC
:1055600010214DF22F5001F08FF903214DF23050F0
:1055700001F08AF933214DF2315001F085F9032110
:105580004DF2325001F080F96D214DF2335001F0AF
:105590007BF900214FF4564001F076F933214DF2AA
:1055A000016001F071F900214DF2026001F06CF927
:1055B00034214DF2036001F067F900214DF20460DF
:1055C00001F062F93A214DF2056001F05DF9002128
:1055D0004DF2066001F058F94A214DF2076001F0E2
:1055E00053F900214DF2086001F04EF95C214DF2B3
:1055F000096001F049F900214DF20A6001F044F917
:1056000081214DF20B6001F03FF900214DF20C6059
:1056100001F03AF9A6214DF20D6001F035F90021B3
:105620004DF20E6001F030F9E5214DF20F6001F00E
:105630002BF901214DF2106001F026F913214DF2F2
:10564000116001F021F901214DF2126001F01CF905
:1056500054214DF2136001F017F901214DF214604D
:1056600001F012F982214DF2156001F00DF90121CE
:105670004DF2166001F008F9CA214DF2176001F0F1
:1056800003F902214DF2186001F0FEF800214DF2FD
:10569000196001F0F9F802214DF21A6001F0F4F8F6
:1056A00001214DF21B6001F0EFF802214DF21C6068
:1056B00001F0EAF834214DF21D6001F0E5F8022115
:1056C0004DF21E6001F0E0F867214DF21F6001F01D
:1056D000DBF802214DF2206001F0D6F884214DF272
:1056E000216001F0D1F802214DF2226001F0CCF8E6
:1056F000A4214DF2236001F0C7F802214DF224608D
:1057000001F0C2F8B7214DF2256001F0BDF8022189
:105710004DF2266001F0B8F8CF214DF2276001F07C
:10572000B3F802214DF2286001F0AEF8DE214DF20F
:10573000296001F0A9F802214DF22A6001F0A4F8D5
:10574000F2214DF22B6001F09FF802214DF22C6006
:1057500001F09AF8FE214DF22D6001F095F8032139
:105760004DF22E6001F090F810214DF22F6001F003
:105770008BF803214DF2306001F086F833214DF2B1
:10578000316001F081F803214DF2326001F07CF8C4
:105790006D214DF2336001F077F855214FF47040E0
:1057A00001F072F8AA214FF2010001F06DF85221C8
:1057B0004FF2020001F068F808214FF2030001F0F7
:1057C00063F800214FF2040001F05EF8CC214FF4A1
:1057D000314001F059F800214BF2011001F054F86A
:1057E00005214FF4364001F04FF870214FF4374057
:1057F00001F04AF870214BF2017001F045F80121E7
:105800004FF4384001F040F803214BF6010001F05D
:105810003BF803214BF6020001F036F803214BF66A
:10582000030001F031F802214FF43C4001F02CF864
:1058300000214BF6014001F027F800214BF6024011
:1058400001F022F8D0214FF4494001F01DF8022167
:105850004CF6011001F018F850214CF6021001F03E
:1058600013F850214CF6031001F00EF850214CF6BD
:10587000041001F009F800214FF4545001F004F82D
:1058800055214FF4685000F0FFFF4FF4885000F0AE
:10589000E5FF7820FDF734FB4FF4245000F0DEFFE5
:1058A00010BD10B5E22000F0D9FF1D2000F0CAFFA6
:1058B000022000F0C7FF042000F0C4FF6420FDF7C1
:1058C0001FFBE02000F0CAFF012000F0BBFF0A2010
:1058D000FDF70CFBE02000F0C1FF032000F0B2FF59
:1058E0000C20FDF703FB012000F0B8FF0A20FDF7B4
:1058F000FDFAE62000F0B2FF2F2000F0A3FFFF200A
:1059000000F0A0FFFF2000F09DFFB02000F0A6FFF8
:10591000202000F097FF002000F094FF032000F00B
:1059200091FF40F21F3000F08DFF012000F08AFF50
:1059300040F2DF1000F086FF002000F083FFB4206B
:1059400000F08CFF042000F07DFF40F21F4000F0CB
:1059500079FF002000F076FF2E2000F073FF00207A
:1059600000F070FF002000F06DFF002000F06AFFE3
:10597000002000F067FFB62000F070FF022000F06A
:1059800061FF4FF4037000F05DFF002000F05AFF4C
:10599000172000F057FF152000F054FF002000F002
:1059A00051FF002000F04EFFF02000F057FF0320D1
:1059B00000F048FF292000F051FFD02000F04EFFFA
:1059C000002000F03FFFBE2000F048FF052000F05F
:1059D00039FFFE2000F036FF012000F033FF0020E9
:1059E00000F030FF002000F02DFF002000F02AFF23
:1059F000B82000F033FF032000F024FF012000F066
:105A000021FFBA2000F02AFF012000F01BFF10BD8B
:105A100010B5112000F022FF7820FDF767FA36203C
:105A200000F01CFF002000F00DFF3A2000F016FFF0
:105A3000052000F007FFB22000F010FF0C2000F05E
:105A400001FF0C2000F0FEFE002000F0FBFE3320E2
:105A500000F0F8FE332000F0F5FEB72000F0FEFE67
:105A6000352000F0EFFEBB2000F0F8FE322000F001
:105A7000E9FEC02000F0F2FE0C2000F0E3FEC220A0
:105A800000F0ECFE012000F0DDFEC32000F0E6FE99
:105A9000102000F0D7FEC42000F0E0FE202000F02F
:105AA000D1FEC62000F0DAFE0F2000F0CBFED020A1
:105AB00000F0D4FEA42000F0C5FEA12000F0C2FE3C
:105AC000E02000F0CBFED02000F0BCFE002000F073
:105AD000B9FE022000F0B6FE072000F0B3FE0A2057
